:020000040800F2
:10000000B00600209D010008C1070008F1050008A6
:10001000CD060008E3030008650E0008000000009C
:10002000000000000000000000000000730A00084B
:10003000510400080000000065080008490B000892
:10004000B7010008B7010008B7010008B7010008B0
:10005000B7010008B7010008B7010008B7010008A0
:10006000B7010008B7010008B7010008B701000890
:10007000B7010008B7010008B7010008B701000880
:10008000B7010008B7010008D1020008B701000855
:10009000B7010008B7010008B7010008B701000860
:1000A000B7010008B7010008B7010008B701000850
:1000B000B7010008A90B0008B7010008B701000844
:1000C000B7010008B7010008B7010008B701000830
:1000D000B7010008B7010008B7010008B701000820
:1000E000B7010008B7010008B7010008B701000810
:1000F000B7010008B7010008B7010008B701000800
:10010000B7010008B7010008B7010008B7010008EF
:10011000F90C0008B7010008B7010008B701000892
:10012000B7010008B7010008B7010008B7010008CF
:10013000B7010008B7010008B7010008B7010008BF
:10014000B7010008B7010008B7010008B7010008AF
:10015000B7010008B7010008B7010008B70100089F
:10016000B7010008B7010008B7010008B70100088F
:10017000B7010008B7010008B7010008B70100087F
:10018000B7010008B7010008DFF80CD000F040F814
:1001900000480047F5110008B006002006488047D7
:1001A00006480047FEE7FEE7FEE7FEE7FEE7FEE75C
:1001B000FEE7FEE7FEE7FEE74D0B000889010008B9
:1001C00040EA01039B0703D009E008C9121F08C0D9
:1001D000042AFAD203E011F8013B00F8013B521E59
:1001E000F9D2704730B50B46014600202022012489
:1001F00009E021FA02F59D4205D303FA02F5491BF5
:1002000004FA02F52844151EA2F10102F1DC30BD0A
:10021000064C074D06E0E06840F0010394E8070053
:1002200098471034AC42F6D3FFF7B2FFB41500087C
:10023000D4150008090AC94301607047002904D099
:10024000816841F0010181607047816821F00101FE
:100250008160704710B5074C226807490A40D0E911
:1002600000131943D0E902300343194311432160BD
:1002700010BD000004230140E030FCFF002904D041
:10028000816841F4807181607047816821F48071D8
:1002900081607047002904D0816841F40071816059
:1002A0007047816821F4007181607047C06C80B232
:1002B000704730B5024600200B0A546801258D4076
:1002C0002C401168194202D0002C00D0012030BD12
:1002D00070B50A4D40F2052421462846FFF7E9FF94
:1002E000012804D12846FFF7E1FF054A1080214686
:1002F0002846BDE87040FFF79DBF00000020014088
:100300003800002030B542680F4B1A400C790B685A
:1003100042EA04221343436083680C4A1340D1E944
:10032000034222434D798C6844EA450422431A4330
:100330008260C26A22F47002097D491EC9B242EA93
:100340000151C16230BD0000FFFEFFFCFDF7FFC0A0
:1003500070B5072609290AD9C568A1F10A0404EB7A
:100360004404A640B543A3401D43C56007E00569AA
:1003700001EB4104A640B543A3401D4305611F2383
:10038000072A09D2446B521E02EB820293409C431F
:1003900091400C43446370BD0D2A09D2046BD21FF7
:1003A00002EB820293409C4391400C43046370BD76
:1003B000C46A0D3A02EB820293409C4391400C4385
:1003C000C46270BD816841F0804181607047002146
:1003D0000160017141718160C1600161012101759C
:1003E0007047FEE7002904D0016841F00101016077
:1003F0007047016821F001010160704730B5036862
:10040000124A1340CC680A682243D1E905452C43BF
:100410002243CC6922430C6A22434C6A22438C6AF1
:1004200022434C6B22438C6B22431A430260426985
:1004300022F00703D1E90B2422431A4342610A69DF
:1004400042604A6882608968C16030BD3F801CF0AC
:100450007047000070B586B00121084600F004FA2C
:100460000121102000F01CFA1E4E07220A213046FE
:1004700000F07AF807220921304600F075F80024D0
:100480008DF8164001208DF8170002258DF81450C4
:10049000410204918DF8155004A9304600F026F869
:1004A0008DF814506802049004A9304600F01EF83C
:1004B0004FF4E1300090ADF80440ADF80640ADF8DF
:1004C0000840ADF80C400C20ADF80A00064C694617
:1004D000204600F061FC0121204600F00FFC06B030
:1004E00070BD000000000240001001402DE9F04105
:1004F000002201274FF0030C07FA02F50B682B408E
:10050000AB422CD1066853000CFA03F4A6430660F4
:100510000E79D0F800809E4046EA080606600E7903
:10052000012E01D0022E12D18668A64386604E7934
:10053000D0F808809E4046EA080686604668AE43CA
:10054000466045688E799640B6B235434560C568C9
:10055000A543C560CC799C40C3681C43C460521C51
:10056000102AC9D3BDE8F08110B54B07DB0E9A40C5
:10057000C90800EB8100016A0F249C40A14301627D
:10058000016A1143016210BD0246002012690A424D
:1005900000D0012070474183704700002DE9F041F1
:1005A000ADF5007D07460C46FF25FF264FF4807809
:1005B00042460D4940A8FFF703FE42460B496846F4
:1005C000FFF7FEFD40A96A4605E017F8010B6840F9
:1005D0000D5C7540165C641EE4B2F6D20DF5007D2C
:1005E00046EA0520BDE8F081B4130008B414000801
:1005F000FEE770B504460D4629462046FFF7C4FFC6
:10060000012801D0002070BD29462046FFF7BCFF1D
:100610000128F9D0012070BD2DE9FC4101215120B4
:1006200000F022F94FF40044009401218DF80410E9
:1006300000208DF806008DF807108DF805000C4E8F
:1006400069463046FFF752FF04270097094D694677
:100650002846FFF74BFF009469460748FFF746FF1F
:1006600034832F83044818300480BDE8FC810000E7
:1006700000000240001002400018024070B5114D09
:1006800000236B70104C0126267010266670060A37
:10069000A670E070080A207161714800A071100A0C
:1006A000E07122726372A3720B212046FFF776FF7E
:1006B0006882010AE17220732046BDE870400D2176
:1006C00000F02AB8100000200C010020FEE7000016
:1006D00006490889401C80B2088142F2107290429B
:1006E00003D90020088101204870704710000020C5
:1006F0000849C888401C80B2C88042F210729042FB
:1007000007D98888002804D088700120087000204C
:10071000C8807047100000202DE9F04105460F46C3
:1007200000240C4E0BE04021304600F0F3FA002884
:10073000F9D0295D304600F091FB641CE4B2BC4264
:10074000F1D34021304600F0E5FA0028F9D0BDE8A9
:10075000F0810000004C004070B500F0F3FD0B4C40
:100760000025608930B1A08B81B2A08A00F00EFD17
:10077000658170BDA0890028FBD0208C022182B247
:10078000A08C80B2FFF77AFFA58170BD1000002019
:1007900030B5094C42F210720025A188914205D271
:1007A0004A1CA280054A5054E58030BDC821034848
:1007B00000F0D6F8A58030BD1000002044000020D5
:1007C000704708B54FF4E06000F042F834208DF82F
:1007D000000001208DF801008DF802008DF8030063
:1007E000684600F001F808BD30B50F23C278012536
:1007F0000178002A1FD0154A126802F4E062C2F59F
:10080000E062C2F30722C2F10404D3404278A2405E
:1008100084781C401443220101F1E02181F8002476
:10082000007800F01F018D404009800000F1E020B9
:10083000C0F8005130BD01F01F008540480980001C
:1008400000F1E020C0F8805130BD00000CED00E068
:100850000249084302490860704700000000FA0599
:100860000CED00E070470000054A002903D0116834
:1008700001431160704711688143116070470000A7
:1008800030380240054A002903D011680143116045
:100890007047116881431160704700004038024082
:1008A000054A002903D0116801431160704711689F
:1008B00081431160704700004438024070B5244BFA
:1008C000196801F00C01234C00291ED0224E042986
:1008D0001DD008291DD00460196801F0F001090934
:1008E0001E4A545C0168E14041601C6804F4E05415
:1008F000A40A145D21FA04F484601B6803F46043C5
:100900005B0BD25CD140C16070BD0460E4E706605F
:10091000E2E70F4A121F1168C1F38055116801F018
:100920003F0135B1B6FBF1F11468C4F3881461439B
:1009300005E0B4FBF1F11468C4F388146143126854
:10094000C2F30142521C5200B1FBF2F10160C3E755
:10095000083802400024F40040787D0100000020A7
:100960000022002301E08354521C8A42FBDB7047C3
:100970001CB501210220FFF777FF02200090032021
:100980008DF8040000208DF8070069460148FFF744
:10099000ADFD1CBD00040240F0B599B001218805F1
:1009A000FFF762FF2C480B902C480C9000240D940C
:1009B00001250E950F941094E8021190800012907A
:1009C00046111396000114901594169517941894D7
:1009D0000A94234F0AA93846FFF710FD0121384633
:1009E000FFF700FD01213046FFF75AFF00944FF456
:1009F0004030019002944FF4706003906846FFF716
:100A000029FC04A8FFF7E3FC04948DF814408DF84A
:100A100015500694079408948DF824500E4C04A9A0
:100A20004C3C2046FFF76EFC07230122092120469B
:100A3000FFF78EFC01212046FFF72CFC0121204608
:100A4000FFF71CFC01212046FFF7F8FB2046FFF7CB
:100A5000B9FC19B0F0BD00004C2001403800002066
:100A60001064024010B5FFF783FFBDE81040FFF7A8
:100A700093BF70470CB50022019200922749086885
:100A800040F4803008604FF4A043086800F4003060
:100A900000900198401C0190009810B9019898426C
:100AA000F3D10868800302D50120009000E0009295
:100AB0000098012831D119484030026842F0805234
:100AC00002601748026842F440420260134808304E
:100AD00002680260026842F400420260026842F466
:100AE000A0520260021F0F4B13600A6842F080722E
:100AF0000A600A689201FCD50B4A40F20571116048
:100B0000016821F003010160016841F00201016008
:100B10000168C1F381010229FAD10CBD00380240FD
:100B20000070004019544007003C02404FF0E021A3
:100B3000042804D0086920F004000861704708699F
:100B400040F00400086170477047000010B512487B
:100B5000016841F4700101601048016841F0010131
:100B600001600E4A00210832116002680C4B1A40E5
:100B70000260031D0B4A1A60026822F480220260A0
:100B800006480C300160FFF775FF03494FF0006025
:100B90008039086010BD000088ED00E00038024098
:100BA000FFFFF6FE1030002410B5094C012120464D
:100BB00000F04DF8002809D00121204600F038F857
:100BC000FFF786FDBDE81040FFF792BD10BD0000A5
:100BD000000400407FB504460D4601210220FFF7C6
:100BE00051FE0294ADF804500024ADF80C40ADF86D
:100BF00006400E4D01A9284600F040F8012211469A
:100C0000284600F030F81D218DF800108DF80140C5
:100C100003218DF8021001218DF803106846FFF7BB
:100C2000E3FD0121284600F006F87FBD00040040E6
:100C3000C94301827047002904D0018841F00101B5
:100C400001807047018821F0010101807047024650
:100C50000020138A0B4092890A40002B02D0002A00
:100C600000D001207047002A03D082890A43828184
:100C7000704782898A4382817047000030B50288BC
:100C8000164C174DA0420DD0A8420BD0B0F1804FAA
:100C900008D0144B984205D0134B984202D0134B06
:100CA000984203D122F070034A881A43104B9842AD
:100CB00006D0104B984203D022F440730A891A439D
:100CC00002804A68C2620A880285A04201D0A84216
:100CD00001D1897A01860121818230BD0000014065
:100CE000000401400004004000080040000C0040E7
:100CF000001000400014004000F0EAB9002904D0C0
:100D0000818941F4005181817047818921F400512A
:100D1000818170470246002012880A4200D00120DB
:100D2000704770B5002440F66A12C1F3421301F017
:100D30001F05012606FA05F2012B0CD0022B0DD05F
:100D4000838A1340090A8E40008830400BB100B1FD
:100D50000124204670BD83891340F3E7038A1340C2
:100D6000F0E710B540F66A13C1F3421301F01F0417
:100D70000121A140012B07D0022B07D014303AB13A
:100D800002680A43026010BD0C30F8E71030F6E745
:100D900002688A43026010BD7FB504460D46208A72
:100DA00020F44051E88808432082A08941F20C6178
:100DB0008843A9882A8911436A8902431143A18182
:100DC000A08A20F44071A8890843A0826846FFF7F2
:100DD00075FD1E48844202D01D48844201D103980B
:100DE00000E00298A189090408D500EBC00101EBDD
:100DF000001029684900B0FBF1F007E000EBC001EA
:100E000001EB001029688900B0FBF1F06422B0FB0F
:100E1000F2F109010B096FF018056B4300EB830039
:100E2000A3891D044FF0320307D503EBC000B0FBCC
:100E3000F2F000F00700084306E003EB0010B0FBFF
:100E4000F2F000F00F00084320817FBD0010014048
:100E5000001401408088C0F308007047C1F3080106
:100E600081807047FEE7000070B586B001218420C4
:100E7000FFF7FAFC0121C804FFF704FD2C4E0822FD
:100E80000B213046FFF770FB08220A213046FFF79E
:100E90006BFB00248DF816408DF8174002258DF865
:100EA0001450680204908DF8155004A93046FFF7DD
:100EB0001DFB8DF81450A802049004A93046FFF7DA
:100EC00015FB8DF816408DF8174001208DF81400A1
:100ED000460204968DF81550164D04A92846FFF7D2
:100EE00005FB4FF496420092ADF804403101ADF895
:100EF0000610ADF80840ADF80C400C20ADF80A0023
:100F00000D4C69462046FFF747FF01212046FFF7B9
:100F1000F5FEFFF756FC012240F225512046FFF76F
:100F200020FF31462846FFF736FB06B070BD0000B3
:100F300000080240001C0240004C00400FB4054B6A
:100F400010B503A9044A029800F018F810BC5DF827
:100F500014FB0000D11100084000002002E008C886
:100F6000121F08C1002AFAD170477047002001E023
:100F700001C1121F002AFBD1704700002DE9FF4F6D
:100F800089B09B460446002506E025280BD05A462A
:100F90000B999047641C6D1C20780028F5D10DB08A
:100FA0002846BDE8F08F0027B8460122474900E0F7
:100FB000074314F8013F203B02FA03F00842F7D13F
:100FC00020782E2819D114F8010F47F004072A2899
:100FD0000ED06FF02F022078A0F1300109290CD833
:100FE00008EB880102EB410100EB0108641CF2E709
:100FF0000A98641C50F8048B0A9020780028CED000
:10100000642808D0692806D075281ED05A460B9946
:1010100090476D1C58E00A994FF00A0901C90A91DE
:10102000002802DA40422D2102E0390504D52B21A7
:101030008DF82010012103E0F90704D02021F7E703
:101040008A4608AE0DE00021FAE70A994FF00A0936
:1010500001C90A91F7E74946FFF7C4F8303106F8AD
:10106000011D0028F7D1ADEB060000F1200978073B
:1010700001D44FF00108C84502DDA8EB090000E0EB
:1010800000208046002706E008A85A46C05D0B995C
:1010900090476D1C7F1C5745F6DB04E030205A4614
:1010A0000B9990476D1CB8F10001A8F10108F5DC1F
:1010B00005E016F8010B5A460B9990476D1CB9F1E3
:1010C0000001A9F10109F4DC641C65E709280100AD
:1010D00010B5084C40F225512046FFF722FE0028AB
:1010E00007D02046FFF7B6FEC0B2BDE81040FFF7BC
:1010F0004FBB10BD004C004010B504466FF004001B
:10110000FFF714FD0649E008087000EB4002C2EB4F
:10111000C0104FF6FF7202EAC000488010BD000008
:101120003A00002070B54FF40775B0FBF5F1CCB272
:10113000B0FBF5F105FB110604E0284600F00CF8C1
:10114000641EE4B2002CF8D1002E04D03046BDE875
:10115000704000F001B870BD0B49498848434FF01A
:10116000E021486100238B61086940F001000861BB
:101170000869C20701D0C003FAD5086920F0010050
:1011800008618B61704700003A00002070B50E4D79
:1011900000226A700D4C0122227006226270020A3F
:1011A000A270E070080A2071617106212046FFF7E5
:1011B000F5F96882010AA171E0712046BDE870402E
:1011C0000821FFF7A9BA0000100000200C01002040
:1011D00070B50446064DE1B22846FFF73FFE802178
:1011E0002846FFF797FD0028F9D0204670BD000083
:1011F00000100140A820FFF77FFF4FF4A060FFF729
:1012000027FBFFF731FEFFF725F9FFF72BFCFFF770
:1012100003FA002141F61F40FFF7DCFC424C012598
:101220002570FFF799FA002626704FF4FA70FFF741
:1012300079FFE570FFF790FAE67040F6B837DFF80F
:10124000EC90DFF8ECB0DFF8EC804FF4005A0121AD
:101250004846FFF7CEF901280BD16570FFF77CFAFD
:10126000667044F62060FFF75DFF2570FFF774FAA3
:10127000267004214046FFF7BCF901280BD1A57068
:10128000FFF76AFAA67042F21070FFF74BFF257065
:10129000FFF762FA267051465846FFF7AAF901286F
:1012A0000BD16570FFF758FA66704FF47A60FFF75C
:1012B00039FF2570FFF750FA267008214046FFF7E6
:1012C00098F9012803D1A570FFF746FAA6701021FE
:1012D0004046FFF78EF9012805D01748016817A08E
:1012E000FFF72CFEB3E74FF4FA5841F28839A570A6
:1012F000FFF732FAA6703846FFF714FF2570FFF7A4
:101300002BFA26704046FFF70DFF6570FFF724FAB1
:1013100066703846FFF706FF2570FFF71DFA267046
:101320004846FFF7FFFEE2E79C0200200000024073
:101330000008024000180240300000202564200D03
:101340000A00000070B5154C15A0A37862782178CA
:10135000FFF7F4FD25780023154840F20E420121E5
:1013600025B1C3708181426204250562657825B18B
:10137000C3708181426208230362A5780C231DB1EA
:10138000C170818142620362E278002A05D0C17097
:1013900081814FF443714162036270BD9C02002061
:1013A000256420202564202025640D0A000000000B
:1013B0001000002000C1814001C0804101C0804177
:1013C00000C1814001C0804100C1814000C1814015
:1013D00001C0804101C0804100C1814000C1814005
:1013E00001C0804100C1814001C0804101C08041F5
:1013F00000C1814001C0804100C1814000C18140E5
:1014000001C0804100C1814001C0804101C08041D4
:1014100000C1814000C1814001C0804101C08041C4
:1014200000C1814001C0804100C1814000C18140B4
:1014300001C0804101C0804100C1814000C18140A4
:1014400001C0804100C1814001C0804101C0804194
:1014500000C1814000C1814001C0804101C0804184
:1014600000C1814001C0804100C1814000C1814074
:1014700001C0804100C1814001C0804101C0804164
:1014800000C1814001C0804100C1814000C1814054
:1014900001C0804101C0804100C1814000C1814044
:1014A00001C0804100C1814001C0804101C0804134
:1014B00000C1814000C0C101C30302C2C60607C704
:1014C00005C5C404CC0C0DCD0FCFCE0E0ACACB0B74
:1014D000C90908C8D81819D91BDBDA1A1EDEDF1FA4
:1014E000DD1D1CDC14D4D515D71716D6D21213D394
:1014F00011D1D010F03031F133F3F23236F6F73744
:10150000F53534F43CFCFD3DFF3F3EFEFA3A3BFB33
:1015100039F9F83828E8E929EB2B2AEAEE2E2FEFE3
:101520002DEDEC2CE42425E527E7E62622E2E32353
:10153000E12120E0A06061A163A3A26266A6A76783
:10154000A56564A46CACAD6DAF6F6EAEAA6A6BABF3
:1015500069A9A86878B8B979BB7B7ABABE7E7FBF23
:101560007DBDBC7CB47475B577B7B67672B2B37313
:10157000B17170B0509091519353529296565797C3
:10158000559594549C5C5D9D5F9F9E5E5A9A9B5BB3
:1015900099595898884849894B8B8A4A4E8E8F4F63
:1015A0008D4D4C8C448485458747468682424383D3
:1015B00041818040D4150008000000204400000054
:1015C0005C0F000818160008440000206C0600009C
:1015D0006C0F000800000000010203040102030474
:1015E00006070809000000000000000000000000DD
:1015F00000000000000000000000000000000000EB
:1016000000000000000000000000000000000000DA
:081610000000000000000000D2
:040000050800018965
:00000001FF
