:020000040800F2
:10000000300900209D01000831080008F1050008B2
:10001000F1060008E3030008DD0E00080000000000
:10002000000000000000000000000000E30A0008DB
:100030005104000800000000D5080008B90B0008B2
:10004000B7010008B7010008B7010008B7010008B0
:10005000B7010008B7010008B7010008B7010008A0
:10006000B7010008B7010008B7010008B701000890
:10007000B7010008B7010008B7010008B701000880
:10008000B7010008B7010008D1020008B701000855
:10009000B7010008B7010008B7010008B701000860
:1000A000B7010008B7010008B7010008B701000850
:1000B000B7010008190C0008B7010008B7010008D3
:1000C000B7010008B7010008B7010008B701000830
:1000D000B7010008B7010008B7010008B701000820
:1000E000B7010008B7010008B7010008B701000810
:1000F000B7010008B7010008B7010008B701000800
:10010000B7010008B7010008B7010008B7010008EF
:10011000710D0008B7010008B7010008B701000819
:10012000B7010008B7010008B7010008B7010008CF
:10013000B7010008B7010008B7010008B7010008BF
:10014000B7010008B7010008B7010008B7010008AF
:10015000B7010008B7010008B7010008B70100089F
:10016000B7010008B7010008B7010008B70100088F
:10017000B7010008B7010008B7010008B70100087F
:10018000B7010008B7010008DFF80CD000F040F814
:1001900000480047E912000830090020064880475F
:1001A00006480047FEE7FEE7FEE7FEE7FEE7FEE75C
:1001B000FEE7FEE7FEE7FEE7BD0B00088901000849
:1001C00040EA01039B0703D009E008C9121F08C0D9
:1001D000042AFAD203E011F8013B00F8013B521E59
:1001E000F9D2704730B50B46014600202022012489
:1001F00009E021FA02F59D4205D303FA02F5491BF5
:1002000004FA02F52844151EA2F10102F1DC30BD0A
:10021000064C074D06E0E06840F0010394E8070053
:1002200098471034AC42F6D3FFF7B2FF001700082E
:1002300020170008090AC94301607047002904D04B
:10024000816841F0010181607047816821F00101FE
:100250008160704710B5074C226807490A40D0E911
:1002600000131943D0E902300343194311432160BD
:1002700010BD000004230140E030FCFF002904D041
:10028000816841F4807181607047816821F48071D8
:1002900081607047002904D0816841F40071816059
:1002A0007047816821F4007181607047C06C80B232
:1002B000704730B5024600200B0A546801258D4076
:1002C0002C401168194202D0002C00D0012030BD12
:1002D00070B50A4D40F2052421462846FFF7E9FF94
:1002E000012804D12846FFF7E1FF054A1080214686
:1002F0002846BDE87040FFF79DBF00000020014088
:100300001000002030B542680F4B1A400C790B6882
:1003100042EA04221343436083680C4A1340D1E944
:10032000034222434D798C6844EA450422431A4330
:100330008260C26A22F47002097D491EC9B242EA93
:100340000151C16230BD0000FFFEFFFCFDF7FFC0A0
:1003500070B5072609290AD9C568A1F10A0404EB7A
:100360004404A640B543A3401D43C56007E00569AA
:1003700001EB4104A640B543A3401D4305611F2383
:10038000072A09D2446B521E02EB820293409C431F
:1003900091400C43446370BD0D2A09D2046BD21FF7
:1003A00002EB820293409C4391400C43046370BD76
:1003B000C46A0D3A02EB820293409C4391400C4385
:1003C000C46270BD816841F0804181607047002146
:1003D0000160017141718160C1600161012101759C
:1003E0007047FEE7002904D0016841F00101016077
:1003F0007047016821F001010160704730B5036862
:10040000124A1340CC680A682243D1E905452C43BF
:100410002243CC6922430C6A22434C6A22438C6AF1
:1004200022434C6B22438C6B22431A430260426985
:1004300022F00703D1E90B2422431A4342610A69DF
:1004400042604A6882608968C16030BD3F801CF0AC
:100450007047000070B586B00121084600F03CFAF4
:100460000121102000F054FA1E4E07220A213046C6
:1004700000F07AF807220921304600F075F80024D0
:100480008DF8164001208DF8170002258DF81450C4
:10049000410204918DF8155004A9304600F026F869
:1004A0008DF814506802049004A9304600F01EF83C
:1004B0004FF4E1300090ADF80440ADF80640ADF8DF
:1004C0000840ADF80C400C20ADF80A00064C694617
:1004D000204600F09DFC0121204600F04BFC06B0B8
:1004E00070BD000000000240001001402DE9F04105
:1004F000002201274FF0030C07FA02F50B682B408E
:10050000AB422CD1066853000CFA03F4A6430660F4
:100510000E79D0F800809E4046EA080606600E7903
:10052000012E01D0022E12D18668A64386604E7934
:10053000D0F808809E4046EA080686604668AE43CA
:10054000466045688E799640B6B235434560C568C9
:10055000A543C560CC799C40C3681C43C460521C51
:10056000102AC9D3BDE8F08110B54B07DB0E9A40C5
:10057000C90800EB8100016A0F249C40A14301627D
:10058000016A1143016210BD0246002012690A424D
:1005900000D0012070474183704700002DE9F041F1
:1005A000ADF5007D07460C46FF25FF264FF4807809
:1005B00042460D4940A8FFF703FE42460B496846F4
:1005C000FFF7FEFD40A96A4605E017F8010B6840F9
:1005D0000D5C7540165C641EE4B2F6D20DF5007D2C
:1005E00046EA0520BDE8F081001500080016000865
:1005F000FEE770B504460D4629462046FFF7C4FFC6
:10060000012801D0002070BD29462046FFF7BCFF1D
:100610000128F9D0012070BD2DE9FC4101215120B4
:1006200000F05AF94FF40044009401218DF80410B1
:1006300000208DF806008DF807108DF805000C4E8F
:1006400069463046FFF752FF04270097094D694677
:100650002846FFF74BFF009469460748FFF746FF1F
:1006600034832F83044818300480BDE8FC810000E7
:1006700000000240001002400018024070B505461C
:100680001A4C05EB850604EBC614002084F87C02A6
:10069000267884F89461102684F895610E0A84F80F
:1006A000966184F89711110A84F8981184F89921B9
:1006B000510084F89A11190A84F89B1184F89C312E
:1006C00084F89D0184F89E0104F5CA7006460B214A
:1006D000FFF764FF010A84F89F1184F8A0013146F6
:1006E0002846BDE870400D2200F03AB81C000020FA
:1006F000FEE7000000EB8001094800EBC110B0F8F4
:100700006012491C89B2A0F8601242F21072914244
:1007100005D90021A0F86012012180F87C127047F1
:100720001C00002000EB80010C4800EBC110B0F869
:100730005E12491C89B2A0F85E1242F21072914218
:100740000AD9B0F8CA10002906D000F51770418404
:100750000121017000214180704700001C00002031
:100760002DE9F0410D46174600240C4E0BE04021C8
:10077000304600F00BFB0028F9D0295D304600F030
:10078000A9FB641CE4B2BC42F1D34021304600F026
:10079000FDFA0028F9D0BDE8F0810000004C0040CF
:1007A00070B50546284600F069FE114805EB850145
:1007B00000EBC1140026B4F8620248B104F26224CE
:1007C000E088618882B2284600F044FD268070BD32
:1007D000B4F86C020028FAD004F51B740222A08938
:1007E00083B2208981B22846FFF748FF268070BD7A
:1007F0001C00002030B500EB80020C48002500EB07
:10080000C214B4F8CA00C82808D2421C2044A4F874
:10081000CA2080F8CC10A4F85E5230BD04F1CC00A0
:10082000C82100F0D5F8A4F8CA5030BD1C00002043
:10083000704708B54FF4E06000F042F834208DF8BE
:10084000000001208DF801008DF802008DF80300F2
:10085000684600F001F808BD30B50F23C2780125C5
:100860000178002A1FD0154A126802F4E062C2F52E
:10087000E062C2F30722C2F10404D3404278A240EE
:1008800084781C401443220101F1E02181F8002406
:10089000007800F01F018D404009800000F1E02049
:1008A000C0F8005130BD01F01F00854048098000AC
:1008B00000F1E020C0F8805130BD00000CED00E0F8
:1008C0000249084302490860704700000000FA0529
:1008D0000CED00E070470000054A002903D01168C4
:1008E0000143116070471168814311607047000037
:1008F00030380240054A002903D0116801431160D5
:100900007047116881431160704700004038024011
:10091000054A002903D0116801431160704711682E
:1009200081431160704700004438024070B5244B89
:10093000196801F00C01234C00291ED0224E042915
:100940001DD008291DD00460196801F0F0010909C3
:100950001E4A545C0168E14041601C6804F4E054A4
:10096000A40A145D21FA04F484601B6803F4604354
:100970005B0BD25CD140C16070BD0460E4E70660EF
:10098000E2E70F4A121F1168C1F38055116801F0A8
:100990003F0135B1B6FBF1F11468C4F3881461432B
:1009A00005E0B4FBF1F11468C4F3881461431268E4
:1009B000C2F30142521C5200B1FBF2F10160C3E7E5
:1009C000083802400024F40040787D010000002037
:1009D0000022002301E08354521C8A42FBDB704753
:1009E0001CB501210220FFF777FF022000900320B1
:1009F0008DF8040000208DF8070069460148FFF7D4
:100A000075FD1CBD00040240F0B599B001218805B8
:100A1000FFF762FF2C480B902C480C9000240D949B
:100A200001250E950F941094E80211908000129009
:100A30004611139600011490159416951794189466
:100A40000A94234F0AA93846FFF7D8FC01213846FB
:100A5000FFF7C8FC01213046FFF75AFF00944FF41E
:100A60004030019002944FF4706003906846FFF7A5
:100A7000F1FB04A8FFF7ABFC04948DF814408DF84B
:100A800015500694079408948DF824500E4C04A930
:100A90004C3C2046FFF736FC072301220921204663
:100AA000FFF756FC01212046FFF7F4FB0121204609
:100AB000FFF7E4FB01212046FFF7C0FB2046FFF7CC
:100AC00081FC19B0F0BD00004C2001401000002056
:100AD0001064024010B5FFF783FFBDE81040FFF738
:100AE00093BF70470CB50022019200922749086815
:100AF00040F4803008604FF4A043086800F40030F0
:100B000000900198401C0190009810B901989842FB
:100B1000F3D10868800302D50120009000E0009224
:100B20000098012831D119484030026842F08052C3
:100B300002601748026842F44042026013480830DD
:100B400002680260026842F400420260026842F4F5
:100B5000A0520260021F0F4B13600A6842F08072BD
:100B60000A600A689201FCD50B4A40F205711160D7
:100B7000016821F003010160016841F00201016098
:100B80000168C1F381010229FAD10CBD003802408D
:100B90000070004019544007003C02404FF0E02133
:100BA000042804D0086920F004000861704708692F
:100BB00040F00400086170477047000010B512480B
:100BC000016841F4700101601048016841F00101C1
:100BD00001600E4A00210832116002680C4B1A4075
:100BE0000260031D0B4A1A60026822F48022026030
:100BF00006480C300160FFF775FF03494FF00060B5
:100C00008039086010BD000088ED00E00038024027
:100C1000FFFFF6FE1030002410B50B4C01212046DA
:100C200000F051F800280DD00121204600F03CF8DA
:100C30000024E0B2FFF75EFDE0B2FFF773FD641C35
:100C4000022CF6DB10BD0000000400407FB5044616
:100C50000D4601210220FFF74DFE0294ADF804502D
:100C60000024ADF80C40ADF806400E4D01A9284611
:100C700000F040F801221146284600F030F81D210E
:100C80008DF800108DF8014003218DF8021001212C
:100C90008DF803106846FFF7DFFD0121284600F0BC
:100CA00006F87FBD00040040C94301827047002957
:100CB00004D0018841F0010101807047018821F0D2
:100CC00001010180704702460020138A0B4092897F
:100CD0000A40002B02D0002A00D001207047002AD1
:100CE00003D082890A438281704782898A43828144
:100CF0007047000030B50288164C174DA0420DD049
:100D0000A8420BD0B0F1804F08D0144B984205D0C8
:100D1000134B984202D0134B984203D122F0700338
:100D20004A881A43104B984206D0104B984203D081
:100D300022F440730A891A4302804A68C2620A8810
:100D40000285A04201D0A84201D1897A0186012101
:100D5000818230BD000001400004014000040040D9
:100D600000080040000C004000100040001400404B
:100D700000F0EAB9002904D0818941F40051818151
:100D80007047818921F4005181817047024600201B
:100D900012880A4200D00120704770B5002440F646
:100DA0006A12C1F3421301F01F05012606FA05F28B
:100DB000012B0CD0022B0DD0838A1340090A8E40E0
:100DC000008830400BB100B10124204670BD8389FA
:100DD0001340F3E7038A1340F0E710B540F66A13B7
:100DE000C1F3421301F01F040121A140012B07D0E0
:100DF000022B07D014303AB102680A43026010BDDA
:100E00000C30F8E71030F6E702688A43026010BD44
:100E10007FB504460D46208A20F44051E8880843F7
:100E20002082A08941F20C618843A9882A89114354
:100E30006A8902431143A181A08A20F44071A889E4
:100E40000843A0826846FFF771FD1E48844202D025
:100E50001D48844201D1039800E00298A189090449
:100E600008D500EBC00101EB001029684900B0FB78
:100E7000F1F007E000EBC00101EB001029688900E8
:100E8000B0FBF1F06422B0FBF2F109010B096FF045
:100E900018056B4300EB8300A3891D044FF0320358
:100EA00007D503EBC000B0FBF2F000F007000843E9
:100EB00006E003EB0010B0FBF2F000F00F00084377
:100EC00020817FBD00100140001401408088C0F3E4
:100ED00008007047C1F3080181807047FEE70000F9
:100EE00070B586B001218420FFF7F6FC0121C8040B
:100EF000FFF700FD2C4E08220B213046FFF734FB94
:100F000008220A213046FFF72FFB00248DF81640F7
:100F10008DF8174002258DF81450680204908DF862
:100F2000155004A93046FFF7E1FA8DF81450A802D5
:100F3000049004A93046FFF7D9FA8DF816408DF8D1
:100F4000174001208DF81400460204968DF81550C4
:100F5000164D04A92846FFF7C9FA4FF496420092AD
:100F6000ADF804403101ADF80610ADF80840ADF819
:100F70000C400C20ADF80A000D4C69462046FFF7E6
:100F800047FF01212046FFF7F5FEFFF752FC012243
:100F900040F225512046FFF720FF31462846FFF753
:100FA000FAFA06B070BD000000080240001C0240C2
:100FB000004C00400FB4054B10B503A9044A029839
:100FC00000F018F810BC5DF814FB0000B112000826
:100FD0001800002002E008C8121F08C1002AFAD138
:100FE00070477047002001E001C1121F002AFBD1A9
:100FF000704700002DE9FF4F89B09B46044600254D
:1010000006E025280BD05A460B999047641C6D1CAE
:1010100020780028F5D10DB02846BDE8F08F0027D4
:10102000B8460122474900E0074314F8013F203B3E
:1010300002FA03F00842F7D120782E2819D114F8CB
:10104000010F47F004072A280ED06FF02F022078F6
:10105000A0F1300109290CD808EB880102EB41010D
:1010600000EB0108641CF2E70A98641C50F8048B3A
:101070000A9020780028CED0642808D0692806D0AD
:1010800075281ED05A460B9990476D1C58E00A9956
:101090004FF00A0901C90A91002802DA40422D21C5
:1010A00002E0390504D52B218DF82010012103E041
:1010B000F90704D02021F7E78A4608AE0DE00021A9
:1010C000FAE70A994FF00A0901C90A91F7E7494678
:1010D000FFF788F8303106F8011D0028F7D1ADEB95
:1010E000060000F12009780701D44FF00108C84537
:1010F00002DDA8EB090000E000208046002706E0A2
:1011000008A85A46C05D0B9990476D1C7F1C574537
:10111000F6DB04E030205A460B9990476D1CB8F17D
:101120000001A8F10108F5DC05E016F8010B5A46AC
:101130000B9990476D1CB9F10001A9F10109F4DC8C
:10114000641C65E70928010010B50F4C40F22551D9
:101150002046FFF722FE002815D02046FFF7B6FEF6
:10116000C1B20A4802788A4204D1BDE8104000208A
:10117000FFF740BB90F88002884204D1BDE81040E0
:101180000120FFF737BB10BD004C00401C000020C1
:101190002DE9F0410746094C012626703846FFF735
:1011A000FFFA002525704FF4FA7000F01FF8E67082
:1011B0003846FFF7F5FAE570BDE8F0811C05002020
:1011C00010B504466FF00400FFF7E8FC0649E0089C
:1011D000087000EB4002C2EBC0104FF6FF7202EA4B
:1011E000C000488010BD00001200002070B54FF410
:1011F0000775B0FBF5F1CCB2B0FBF5F105FB1106BC
:1012000004E0284600F00CF8641EE4B2002CF8D18B
:10121000002E04D03046BDE8704000F001B870BD2B
:101220000B49498848434FF0E021486100238B6116
:10123000086940F0010008610869C20701D0C003D5
:10124000FAD5086920F0010008618B617047000041
:101250001200002070B50546144805EB850400EB2C
:10126000C414002384F87C32207884F8940106208A
:1012700084F89501080A84F8960184F89711100AF9
:1012800084F8980184F8992104F5CA70064606216D
:10129000FFF784F9010A84F89A1184F89B0131461A
:1012A0002846BDE870400822FFF75ABA1C0000200B
:1012B00070B50446064DE1B22846FFF70BFE8021CB
:1012C0002846FFF763FD0028F9D0204670BD0000D6
:1012D00000100140034A00EB800002EBC0100170D7
:1012E000704700001C000020A820FFF769FF4FF4A2
:1012F000A060FFF7E5FAFFF7F3FDFFF7ABF8FFF7A4
:10130000E9FBFFF789F9002141F61F40FFF79EFC3A
:1013100001210020FFF7DEFF02210120FFF7DAFFA5
:101320000120FFF735FF3A4DDFF8E8803A4C42F2F2
:1013300010764FF4005701212846FFF75AF901288B
:1013400003D13246022100F07FF804212046FFF746
:1013500050F9012804D101213246084600F074F802
:1013600039464046FFF745F901280BD14FF47A6919
:101370004A460121002000F067F801214A4608464C
:1013800000F062F808212046FFF733F9012809D15F
:1013900000220221104600F057F80022022101200D
:1013A00000F052F810212046FFF723F9012808D059
:1013B0001A491BA0D1F8F824D1F87812FFF7FAFDEA
:1013C000B9E740F6B8344FF4FA5541F28836224670
:1013D0000221002000F038F82846FFF707FF2246D8
:1013E0000121002000F030F83046FFF7FFFE012118
:1013F0002246084600F028F82846FFF7F7FE224666
:101400000221012000F020F83046FFF7EFFEDEE772
:101410000000024000080240001802401C000020AA
:10142000446576696365203120646174613A2025E2
:10143000642C2044657669636520322064617461A0
:101440003A2025640D0A00002DE9F04780460D463C
:101450009146094C012767554046FFF7A1F9002640
:1014600066551FFA89F0FFF7C1FE27704046FFF767
:1014700097F92670BDE8F0871C05002070B504467A
:101480001A4D1BA0AB786A782978FFF793FD2B786B
:10149000A5F5A06004EB840440F20E42012100EBAC
:1014A000C41033B1A0F86C12C0F874220423C0F841
:1014B00078326B7833B1A0F86C12C0F8742208232C
:1014C000C0F87832AC780C232CB1A0F86C12C0F8BC
:1014D0007422C0F87832EA78002A06D000F51B7032
:1014E00001804FF443718160C36070BD1C05002012
:1014F000256420202564202025640D0A00000000BA
:1015000000C1814001C0804101C0804100C18140D3
:1015100001C0804100C1814000C1814001C08041C3
:1015200001C0804100C1814000C1814001C08041B3
:1015300000C1814001C0804101C0804100C18140A3
:1015400001C0804100C1814000C1814001C0804193
:1015500000C1814001C0804101C0804100C1814083
:1015600000C1814001C0804101C0804100C1814073
:1015700001C0804100C1814000C1814001C0804163
:1015800001C0804100C1814000C1814001C0804153
:1015900000C1814001C0804101C0804100C1814043
:1015A00000C1814001C0804101C0804100C1814033
:1015B00001C0804100C1814000C1814001C0804123
:1015C00000C1814001C0804101C0804100C1814013
:1015D00001C0804100C1814000C1814001C0804103
:1015E00001C0804100C1814000C1814001C08041F3
:1015F00000C1814001C0804101C0804100C18140E3
:1016000000C0C101C30302C2C60607C705C5C404A2
:10161000CC0C0DCD0FCFCE0E0ACACB0BC90908C812
:10162000D81819D91BDBDA1A1EDEDF1FDD1D1CDC02
:1016300014D4D515D71716D6D21213D311D1D01072
:10164000F03031F133F3F23236F6F737F53534F462
:101650003CFCFD3DFF3F3EFEFA3A3BFB39F9F838D2
:1016600028E8E929EB2B2AEAEE2E2FEF2DEDEC2CC2
:10167000E42425E527E7E62622E2E323E12120E032
:10168000A06061A163A3A26266A6A767A56564A422
:101690006CACAD6DAF6F6EAEAA6A6BAB69A9A86892
:1016A00078B8B979BB7B7ABABE7E7FBF7DBDBC7C82
:1016B000B47475B577B7B67672B2B373B17170B0F2
:1016C00050909151935352929656579755959454E2
:1016D0009C5C5D9D5F9F9E5E5A9A9B5B9959589852
:1016E000884849894B8B8A4A4E8E8F4F8D4D4C8C42
:1016F00044848545874746868242438341818040B2
:1017000020170008000000201C000000D40F000873
:101710003C1700081C00002014090000E40F00081A
:101720000000000001020304010203040607080987
:0C173000000000000000000000000000AD
:040000050800018965
:00000001FF
